{
  "contractName": "AdvancedStorage",
  "abi": [
    {
      "constant": true,
      "inputs": [
        {
          "name": "",
          "type": "uint256"
        }
      ],
      "name": "data",
      "outputs": [
        {
          "name": "",
          "type": "uint256"
        }
      ],
      "payable": false,
      "stateMutability": "view",
      "type": "function",
      "signature": "0xf0ba8440"
    },
    {
      "inputs": [],
      "payable": false,
      "stateMutability": "nonpayable",
      "type": "constructor",
      "signature": "constructor"
    },
    {
      "constant": false,
      "inputs": [
        {
          "name": "_data",
          "type": "uint256"
        }
      ],
      "name": "addContent",
      "outputs": [],
      "payable": false,
      "stateMutability": "nonpayable",
      "type": "function",
      "signature": "0x7a580fea"
    },
    {
      "constant": true,
      "inputs": [
        {
          "name": "_postion",
          "type": "uint256"
        }
      ],
      "name": "getSingle",
      "outputs": [
        {
          "name": "",
          "type": "uint256"
        }
      ],
      "payable": false,
      "stateMutability": "view",
      "type": "function",
      "signature": "0x3daff66b"
    },
    {
      "constant": true,
      "inputs": [],
      "name": "displayAllContent",
      "outputs": [
        {
          "name": "",
          "type": "uint256[]"
        }
      ],
      "payable": false,
      "stateMutability": "view",
      "type": "function",
      "signature": "0xb70d5341"
    },
    {
      "constant": true,
      "inputs": [],
      "name": "length",
      "outputs": [
        {
          "name": "",
          "type": "uint256"
        }
      ],
      "payable": false,
      "stateMutability": "view",
      "type": "function",
      "signature": "0x1f7b6d32"
    }
  ],
  "bytecode": "0x608060405234801561001057600080fd5b506100246001640100000000610029810204565b61005b565b600080546001810182559080527f290decd9548b62a8d60345a988386fc84ba6bc95484008f6362f93160ef3e5630155565b61027a8061006a6000396000f3fe60806040526004361061006c5763ffffffff7c01000000000000000000000000000000000000000000000000000000006000350416631f7b6d3281146100715780633daff66b146100985780637a580fea146100c2578063b70d5341146100ee578063f0ba844014610153575b600080fd5b34801561007d57600080fd5b5061008661017d565b60408051918252519081900360200190f35b3480156100a457600080fd5b50610086600480360360208110156100bb57600080fd5b5035610183565b3480156100ce57600080fd5b506100ec600480360360208110156100e557600080fd5b50356101a5565b005b3480156100fa57600080fd5b506101036101d7565b60408051602080825283518183015283519192839290830191858101910280838360005b8381101561013f578181015183820152602001610127565b505050509050019250505060405180910390f35b34801561015f57600080fd5b506100866004803603602081101561017657600080fd5b503561022f565b60005490565b6000808281548110151561019357fe5b90600052602060002001549050919050565b600080546001810182559080527f290decd9548b62a8d60345a988386fc84ba6bc95484008f6362f93160ef3e5630155565b6060600080548060200260200160405190810160405280929190818152602001828054801561022557602002820191906000526020600020905b815481526020019060010190808311610211575b5050505050905090565b600080548290811061023d57fe5b60009182526020909120015490508156fea165627a7a7230582048058fa2a0eb9341e651130fb87a10a2e361be4a836e23754091b5f99751747c0029",
  "source": "// SPDX-License-Identifier: MIT\r\npragma solidity >=0.4.22 <0.9.0;\r\n\r\ncontract AdvancedStorage {\r\n    //store multiple string\r\n\r\n    uint256[] public data;\r\n\r\n    constructor() public {\r\n        addContent(1);\r\n    }\r\n\r\n    //function to add content to list\r\n    function addContent(uint256 _data) public {\r\n        data.push(_data);\r\n    }\r\n\r\n    //function to display one list\r\n    function getSingle(uint256 _postion) public view returns (uint256) {\r\n        return data[_postion];\r\n    }\r\n\r\n    //funtion to display all list\r\n    function displayAllContent() public view returns (uint256[] memory) {\r\n        return data;\r\n    }\r\n\r\n    //function to list length\r\n    function length() public view returns (uint256) {\r\n        return data.length;\r\n    }\r\n}\r\n",
  "sourcePath": "C:/Users/dpake/OneDrive/Desktop/Project/Block chain/Dapps 30/Day4  - advancedStorage/contracts/AdvancedStorage.sol",
  "compiler": {
    "name": "solc",
    "version": "0.5.0+commit.1d4f565a.Emscripten.clang"
  },
  "schemaVersion": "3.0.1",
  "updatedAt": "2022-06-10T07:26:04.360Z",
  "devdoc": {
    "methods": {}
  },
  "userdoc": {
    "methods": {}
  }
}